:020000040800F2
:100000000000022035280008C11E0008C31E000899
:10001000C51E0008C71E0008C91E00080000000019
:10002000000000000000000000000000CB1E0008DF
:10003000CD1E000800000000CF1E0008D11E0008E1
:1000400085280008852800088528000885280008DC
:1000500085280008852800088528000885280008CC
:1000600085280008852800088528000885280008BC
:1000700085280008852800088528000885280008AC
:10008000852800088528000885280008852800089C
:10009000852800088528000885280008852800088C
:1000A000852800088528000885280008852800087C
:1000B000D51E000885280008852800088528000826
:1000C000852800088528000885280008852800085C
:1000D000852800088528000885280008852800084C
:1000E000852800088528000885280008852800083C
:1000F000852800088528000885280008852800082C
:10010000852800088528000885280008852800081B
:10011000852800088528000885280008852800080B
:1001200085280008852800088528000885280008FB
:1001300085280008852800088528000885280008EB
:1001400085280008852800088528000885280008DB
:1001500085280008852800088528000885280008CB
:1001600085280008852800088528000885280008BB
:100170008528000885280008852800080000000060
:08018000E11E000885280008BB
:1001900010B5054C237833B9044B13B10448AFF3C1
:1001A00000800123237010BD18C30120000000004F
:1001B0002831000808B5034B1BB103490348AFF3CE
:1001C000008008BD000000001CC301202831000889
:1001D000034613F8012B002AFBD1181A0138704787
:1001E00001F0FF01102A2BDB10F0070F08D010F8E8
:1001F000013B013A8B422DD010F0070F42B3F6D1EC
:10020000F0B441EA012141EA014122F007047FF004
:1002100000070023F0E80256083C85EA010586EA5B
:10022000010685FA47F5A3FA87F586FA47F6A5FA97
:1002300087F68EB9EED1F0BC01F0FF0102F00702A3
:1002400032B110F8013B013A83EA010313B1F8D14E
:100250000020704701387047002D06BF354603382F
:10026000073815F0010F07D1013015F4807F02BF68
:10027000013015F4C03F0130F0BC0138704700BFB9
:1002800053B94AB9002908BF00281CBF4FF0FF31FD
:100290004FF0FF3000F07AB9ADF1080C6DE904CEF3
:1002A00000F006F8DDF804E0DDE9022304B0704751
:1002B0002DE9F0478C460D460446089E002B51D18F
:1002C0008A4217466DD9B2FA82FEBEF1000F0BD0FA
:1002D000CEF1200C01FA0EF520FA0CFC02FA0EF712
:1002E0004CEA050C00FA0EF44FEA174A250CBCFB49
:1002F000FAF81FFA87F90AFB18CC45EA0C4508FB07
:1003000009F3AB420AD9ED1908F1FF3280F02381DD
:10031000AB4240F22081A8F102083D44ED1AA4B29C
:10032000B5FBFAF00AFB105544EA054400FB09F955
:10033000A14509D9E41900F1FF3380F00A81A145F4
:1003400040F2078102383C44A4EB090440EA08402B
:100350000021002E61D024FA0EF400233460736073
:10036000BDE8F0878B4207D9002E54D0002186E8E3
:1003700021000846BDE8F087B3FA83F1002940F078
:100380008E80AB4202D3824200F2FA80841A65EB7F
:1003900003050120AC46002E3FD086E81010BDE8D2
:1003A000F08712B90127B7FBF2F7B7FA87FEBEF163
:1003B000000F34D1EB1B3A0C1FFA87FC0121B3FB71
:1003C000F2F8250C02FB183345EA03450CFB08F351
:1003D000AB4207D9ED1908F1FF3002D2AB4200F26F
:1003E000D1808046ED1AA3B2B5FBF2F002FB1055A6
:1003F00043EA05440CFB00FCA44507D9E41900F1CD
:10040000FF3302D2A44500F2B8801846A4EB0C04D6
:1004100040EA08409DE731463046BDE8F087CEF11E
:10042000200405FA0EF307FA0EF720FA04F83A0C46
:1004300025FA04F448EA0308B4FBF2F14FEA184540
:1004400002FB11441FFA87FC45EA044501FB0CF34B
:10045000AB4200FA0EF409D9ED1901F1FF3080F03A
:100460008A80AB4240F2878002393D44EB1A1FFA82
:1004700088F5B3FBF2F002FB103345EA034500FBBD
:100480000CF3AB4207D9ED1900F1FF386FD2AB4244
:100490006DD902383D44EB1A40EA01418FE7C1F1C2
:1004A000200722FA07F88B4005FA01F448EA030313
:1004B00020FA07FE4FEA134CFD404EEA040EB5FB4E
:1004C000FCF94FEA1E440CFB19551FFA83F844EA65
:1004D000054509FB08F4AC4202FA01F200FA01FA00
:1004E00008D9ED1809F1FF3043D2AC4241D9A9F146
:1004F00002091D442D1B1FFA8EFEB5FBFCF00CFB00
:1005000010554EEA054400FB08F8A04507D9E41849
:1005100000F1FF3529D2A04527D902381C4440EA12
:100520000940A4EB0804A0FB02894C45C6464D4691
:1005300015D312D056B1BAEB0E0364EB050404FADE
:1005400007F7CB401F43CC40376074600021BDE803
:10055000F0871846F8E69046E0E6C245EAD2B8EBE6
:10056000020E69EB03050138E4E72846D7E7404669
:1005700091E78146BEE7014678E702383C4445E70B
:10058000084608E7A8F102083D442BE7704700BF82
:1005900038B50E4A0E4B054618784FF47A73B3FB04
:1005A000F0F31068B0FBF3F000F0AAF8044658B975
:1005B0000F2D09D8024629464FF0FF3000F05EF8B3
:1005C000044B20461D6038BD012038BD0C000020C2
:1005D000000000200400002008B50B4B1A6842F40C
:1005E00000721A601A6842F480621A601A6842F453
:1005F00080721A60032000F02FF80020FFF7C8FF78
:1006000001F096FB002008BD003C0240034A044B69
:1006100011681B780B441360704700BF60C3012052
:1006200000000020014B1868704700BF60C3012024
:1006300038B50446FFF7F6FF631C1CBF054B1B785B
:10064000054618BFE418FFF7EDFF401B8442FAD8B7
:1006500038BD00BF00000020074AD36823F4E063E0
:100660001B041B0C43F0BF63000243F4003300F48F
:10067000E0600343D360704700ED00E0174B30B5F6
:10068000DC68C4F30224C4F10703251D042B28BF32
:100690000423062D4FF0010505FA03F303F1FF33A0
:1006A0008CBF033C00241940A14005FA04F4013C2E
:1006B0002240002842EA01024FEA0212ADBF00F1D7
:1006C000604000F00F00064B00F56140B5BFD2B2AC
:1006D000D2B21A5480F8002330BD00BF00ED00E014
:1006E00014ED00E0002808DB4209012300F01F00A0
:1006F00003FA00F0014B43F82200704700E100E0EC
:100700000138B0F1807F0AD2064B074A5860F021C9
:1007100082F823100020072298601A607047012099
:10072000704700BF10E000E000ED00E02DE9F04F61
:1007300085B00B68DFF8AC81684ADFF8AC910193B3
:1007400000230124019D9C402540AC4240F0B08034
:100750004C6824F0100C0CF1FF36012E4FEA430ECA
:1007600012D88768032606FA0EF627EA0607CE682F
:1007700006FA0EF63E4386604768C4F3001627EA81
:1007800005079E403E4346600326C76806FA0EF6FC
:10079000F64307EA060A8F6807FA0EF747EA0A07E0
:1007A000BCF1020FC76016D14FEAD30A00EB8A0AE8
:1007B00003F0070BDAF820704FEA8B0B4FF00F0CA9
:1007C0000CFA0BFC27EA0C0C0F6907FA0BF747EA47
:1007D0000C07CAF8207007683E4004F0030707FAC8
:1007E0000EFE4EEA06060660E60061D54FF0000BED
:1007F000CDF80CB0D8F84470394E47F48047C8F8AB
:100800004470D8F8447007F480470397039F23F09F
:10081000030707F1804707F59C3703F0030CD7F86F
:1008200008A04FEA8C0C4FF00F0E0EFA0CFEB042EF
:100830002AEA0E0E43D006F58066B04241D006F596
:100840008066B0423FD006F58066B0423DD006F5E6
:100850008066B0423BD048453BD006F50066B042CA
:1008600039D006F58066B04214BF0826072606FA7E
:100870000CF646EA0E06BE601668EF4314F4803F9D
:100880000CBF3E402E431660566814F4003F0CBF68
:100890003E402E435660966814F4801F0CBF3E40C5
:1008A0002E439660D668A40254BF3E402E43D660C5
:1008B0000133102B7FF445AF05B0BDE8F08F5E46E5
:1008C000D5E70126D3E70226D1E70326CFE70426A2
:1008D000CDE70526CBE70626C9E700BF003C01406F
:1008E000000002400038024000140240036919422F
:1008F00014BF0120002070470AB1816170470904CC
:10090000FBE700002DE9F341044608B901203FE070
:100910000368DD0710D4236898075AD423681A07A0
:1009200000F19C8023685B0700F1BA80A069002871
:1009300040F01B8100202BE0A44B9A6802F00C02CF
:10094000042A07D09A6802F00C02082A0AD15B68D0
:10095000590207D59D4B1B689A03DCD56368002BB1
:10096000D9D1D3E76368994DB3F5803F13D12B6894
:1009700043F480332B60FFF755FE944D06462B68F9
:100980009B03C8D4FFF74EFE801B6428F7D90320D1
:1009900002B0BDE8F081B3F5A02F04D12B6843F479
:1009A00080232B60E3E72A6822F480322A602A68D9
:1009B00022F480222A60002BDDD1FFF733FE0646A9
:1009C0002B689F03A7D5FFF72DFE801B6428F7D95E
:1009D000DDE77E4B9A6812F00C0F07D09A6802F0A0
:1009E0000C02082A11D15B685E020ED4774B1A689C
:1009F000950702D5E268012A88D11A68216922F098
:100A0000F80242EAC1021A6088E7E268704BB2B1AC
:100A100001221A60FFF706FE6C4D06462B68980708
:100A200007D52B68226923F0F80343EAC2032B6041
:100A300074E7FFF7F7FD801B0228EFD9A7E71A60DC
:100A4000FFF7F0FD614D06462B6899077FF566AF0D
:100A5000FFF7E8FD801B0228F6D998E762695D4B35
:100A60007AB101221A60FFF7DDFD584D06466B6F23
:100A70009F073FF557AFFFF7D5FD801B0228F6D93A
:100A800085E71A60FFF7CEFD504D06466B6F98075D
:100A90007FF548AFFFF7C6FD801B0228F6D976E741
:100AA0004A4B1A6C12F0805228D101921A6C42F013
:100AB00080521A641B6C03F080530193019B012642
:100AC000454D2B68D9051BD5A368404D012B27D177
:100AD0002B6F43F001032B67FFF7A4FD3B4D074647
:100AE00041F288382B6F9B0739D5002E3FF41EAF9B
:100AF000364A136C23F08053136417E70026DFE7B0
:100B00002B6843F480732B60FFF78CFD07462B683E
:100B1000DA05D9D4FFF786FDC01B0228F7D936E7DE
:100B2000052B04D12B6F43F004032B67D0E72A6F0A
:100B300022F001022A672A6F22F004022A67002BA2
:100B4000CAD1FFF76FFD41F2883807462B6F98072F
:100B5000CBD5FFF767FDC01B4045F7D917E7FFF777
:100B600061FDC01B4045BDD911E7184DAB6803F0CE
:100B70000C03082B47D0194E00230228336035D1CF
:100B8000FFF750FD07462B68990129D4226AE369D3
:100B90001343626A43EA8213E26A43EA0263A26A87
:100BA0000A4C5208013A43EA02436B600123336066
:100BB000FFF738FD054623689A013FF5BBAEFFF706
:100BC00031FD401B0228F6D9E1E600BF00380240A3
:100BD00000004742800E47420070004060004742DC
:100BE000FFF720FDC01B0228CDD9D0E6FFF71AFD84
:100BF00004462B689B017FF59DAEFFF713FD001B9C
:100C00000228F6D9C3E601283FF4C2AE6868E3695A
:100C100000F480029A427FF479AE226A00F03F032A
:100C200093427FF473AE626A47F6C0730340934207
:100C30007FF46CAEA26A00F4403393427FF466AE58
:100C4000E36A00F07060C01A18BF0120A0E600BF80
:100C5000134908B58B6803F00C03042B03D0082B51
:100C600003D0104808BD104808BD4A684B68496861
:100C700013F4800314BF0C480A48C1F3881118BF4D
:100C8000002302F03F02A1FB0001FFF7F9FA044B39
:100C90005B68C3F3014301335B00B0FBF3F008BDB5
:100CA000003802400024F40000127A002DE9F041DF
:100CB0000D46044610B90120BDE8F081444B1A6886
:100CC00002F00F028A4229D321688F072ED4C80769
:100CD00041D43F4B1A6802F00F02954267D3226855
:100CE00051076DD4130707D53A4A2169936823F455
:100CF000604343EAC1039360FFF7AAFF354B364ACE
:100D00009B68C3F30313D35CD840344B1860344B57
:100D10001868FFF73DFC0020BDE8F081CAB21A70E8
:100D20001B6803F00F039942C5D1CDE7294B11F0A1
:100D3000040F1EBF9A6842F4E0529A600E0742BF49
:100D40009A6842F460429A609A68A06822F0F002C1
:100D500002439A60BBE762681E4B012A1DD11B68E3
:100D600013F4003FA7D01B4EB36823F003031343D3
:100D7000B360FFF757FC41F288380746B3686268F2
:100D800003F00C03B3EB820FA3D0FFF74BFCC01BA7
:100D90004045F3D90320BDE8F081911E01291B686D
:100DA00002D813F0007FDDE713F0020FDAE7EAB2B2
:100DB0001A701B6803F00F039D427FF47CAF8EE72F
:100DC0000449E0688B6823F4E05303438B6089E7B0
:100DD000003C024000380240B03E00080C000020F9
:100DE00004000020044B054A9B68C3F38223D35CB4
:100DF000034A1068D840704700380240C03E0008DF
:100E00000C000020044B054A9B68C3F34233D35CBB
:100E1000034A1068D840704700380240C03E0008BE
:100E20000C00002010B5044690B1437903F0FF0296
:100E300013B9027100F098FF2268022363711368EE
:100E400043F004031360002001236371A06010BD10
:100E5000012010BDF8B50379012B04460E4625D0BC
:100E600063790120834220711DD102236371FFF752
:100E7000D9FB07462268556815F0010508D093682C
:100E8000E360336001236371002000232371F8BD08
:100E9000FFF7C8FBC01B0228ECD9012002236071B8
:100EA0002571A360F8BD0423A360EEE70220F8BD1E
:100EB00010B500F10C010446FFF7CCFF08B9E0685B
:100EC00010BD002010BD7047704703685A6810B508
:100ED000044690061FD51023A360042363712046A7
:100EE000FFF7F2FF23686FF060025A6023685A68C8
:100EF000D20715D51A6822F008021A60996863793A
:100F0000E160042B0CD00123637100232371204680
:100F1000FFF7D9FF10BD5B685906E7D50823DBE76B
:100F200010BD70B50E461546044610B390F8493012
:100F300003F0FF021BB980F8482000F087FF04F19E
:100F40000801206800F068FBA2682068314600F0C4
:100F50008FFB236BA2686068294600F0A7FBA1689D
:100F6000226852F8213043F0010342F8213000207A
:100F700070BD012070BD0368DA6842F00102DA60DA
:100F80009A6802F00702062A1EBF1A6842F00102A0
:100F90001A60002070470368DA6822F00102DA6004
:100FA000196A41F21112114208D1196A40F2444201
:100FB000114202BF1A6822F001021A600020704735
:100FC000704770477047704703681A69910710B5FA
:100FD00004460ED5DA6892070BD56FF002021A614B
:100FE0009B6901229B07027777D0FFF7EAFF002376
:100FF000237723681A69500710D5DA6851070DD591
:101000006FF004021A619B69022213F4407F227779
:10101000204668D0FFF7D5FF0023237723681A699D
:1010200012070FD5DA6810070CD56FF008021A61A5
:10103000DB6904229907227720465AD0FFF7C1FFC7
:101040000023237723681A69D20610D5DA68D00600
:101050000DD56FF010021A61DB69082213F4407F8E
:10106000227720464BD0FFF7ACFF0023237723687D
:101070001A69D10708D5DA68D20705D56FF00102E1
:101080001A61204601F046FB23681A69100608D54C
:10109000DA68110605D56FF080021A61204600F06B
:1010A00096F923681A69520608D5DA68500605D5FC
:1010B0006FF040021A612046FFF785FF23681A6926
:1010C000910622D5DA6892061FD56FF020022046DD
:1010D0001A61BDE8104000F079B9FFF771FF2046B2
:1010E000FFF770FF83E7FFF76BFF2046FFF76AFF0C
:1010F00092E7FFF765FF2046FFF764FFA0E7FFF7E1
:101100005FFF2046FFF75EFFAFE710BD304A036880
:10111000904212D0B0F1804F0FD0A2F57C429042A5
:101120000BD002F58062904207D002F580629042B7
:1011300003D002F57842904219D14A6823F0700337
:101140001343234A904229D0B0F1804F26D0A2F514
:101150007C42904222D002F5806290421ED002F57D
:10116000806290421AD002F57842904216D0194A15
:10117000904213D002F5806290420FD002F5806257
:1011800090420BD0A2F59832904207D002F58062CF
:10119000904203D002F58062904203D1CA6823F4E2
:1011A000407313434A6923F08003134303608B6841
:1011B000C3620B688362064B984203D003F58063D9
:1011C000984201D10B69036301234361704700BF5B
:1011D000000001400040014010B50446A0B190F865
:1011E0003D3003F0FF021BB980F83C2000F0DCFD2D
:1011F000022384F83D302068211DFFF787FF01237B
:1012000084F83D30002010BD012010BD10B5846869
:101210000A4324F47F4442EA03232343836010BD3E
:1012200090F83C30012B70B504464FF0020019D005
:1012300084F83D002068012384F83C30836823F45F
:101240007F4323F0770383600B68402B65D015D86C
:10125000102B0CD007D853B10123002084F83D3067
:1012600084F83C0070BD202B01D0302BF4D1826873
:1012700043F0070322F0700213431AE0602B34D0CE
:1012800019D8502BE8D14A68CE68016A056A25F062
:1012900001050562836921F00A0123F0F00343EAA6
:1012A00006130A4383610262836823F0700343F0EC
:1012B00057038360D0E7702B0CD0B3F5005FCBD120
:1012C000CB684A688968FFF7A1FF2268936843F4F6
:1012D000804308E0CB684A688968FFF797FF226877
:1012E000936843F077039360B6E74D68CE68016A70
:1012F00021F0100101628269036A22F4704223F036
:10130000A00343EA051342EA06328261036283685E
:1013100023F0700343F06703CBE74A68CE68016AA5
:10132000056A25F001050562836921F00A0123F0B1
:10133000F00343EA06130A4383610262836823F0E1
:10134000700343F04703B4E790F83C30012B30B50D
:101350004FF0020335D080F83D3003680D685C68BB
:1013600024F0700401222C4380F83C209A685C60D1
:10137000154CA3421AD0B3F1804F17D0A4F57C448A
:10138000A34213D004F58064A3420FD004F5806417
:10139000A3420BD004F57844A34207D004F570545F
:1013A000A34203D0A4F59434A34204D1496822F0A7
:1013B00080020A439A60012380F83D30002380F8C0
:1013C0003C30184630BD00BF0000014070477047F8
:1013D00038B50368C1681A69044622F440520A43CA
:1013E0001A612569A268D968C0692A43656921F430
:1013F00016412A4321F00C0102430A43DA605A697C
:10140000A16922F440720A43B0F5004F5A61254A9F
:1014100029D1934203D002F58062934220D1FFF795
:10142000F1FC6268256892184FF000034FF0190133
:101430005B41A0FB0101FEF723FF6421B0FBF1F447
:1014400001FB1403DB003233B3FBF1F303F00702BB
:101450005B0002EB041203F4F8731344AB6038BD75
:10146000FFF7C0FCDDE7934202D00F4A934216D14A
:10147000FFF7C8FC6368256819219A00A0FB0101E9
:101480009B0FFEF7FDFE6422B0FBF2F102FB11039D
:101490001B013233B3FBF2F303EB0113DEE7FFF77B
:1014A000A1FCE7E70010014000140140F8B5044634
:1014B0000E4617461D4621680B6836EA030301D124
:1014C0000020F8BD6B1CF7D095B92368DA6822F4C8
:1014D000D072DA605A6922F001025A61202384F83E
:1014E000393084F83A30002384F838300320F8BDCE
:1014F000FFF798F8C01B8542DDD2E6E710B5044639
:1015000040B390F8393003F0FF021BB980F838205F
:1015100000F066FC2268242384F83930D36823F471
:101520000053D3602046FFF753FF23681A6922F463
:1015300090421A615A6922F02A025A61DA6842F42A
:101540000052DA6000202023E06384F8393084F808
:101550003A3010BD012010BD2DE9F8431F4690F828
:101560003930202B04460D46904651D100294CD0ED
:10157000002A4AD090F83830012B49D0012380F856
:1015800038304FF000092123C0F83C9080F8393002
:10159000FFF748F8A4F824800646A4F8268084F8CB
:1015A0003890E38C9BB25BB93B46324640212046E3
:1015B000FFF77CFFA0B9202384F83930BDE8F88319
:1015C000E38C013B9BB2E384A368B3F5805F3246B2
:1015D0003B464FF0800120460ED1FFF767FF10B168
:1015E0000320BDE8F8832B882268C3F30803536007
:1015F000236943B90235D4E7FFF758FF0028EFD13C
:1016000023682A785A600135CBE70120BDE8F883CA
:101610000220BDE8F883000070B50C688D6850F8B2
:1016200024304A68114E1E4045EA0203CA6813433B
:101630000A6913434A6913438A691343CA69134306
:101640000A6A13434A6A13438A6A1343CA6A1343F2
:10165000CA6B13430A6B13433343082D08BF43F08F
:10166000400340F82430002070BD00BF8000F0FF30
:1016700000EB82020B6888690343486843EA001361
:10168000886830B543EA00230D69C8684969546821
:1016900043EA0043013D43EA0553023904F0404464
:1016A00043EA016323435360002030BDB3F5804F0C
:1016B00030B514D150F822300A4C8D691C400B68AB
:1016C0002B434D6843EA05138D68C96843EA052337
:1016D00043EA0143234340F82230002030BD6FF03D
:1016E0007043F8E70000F0CF82B0084A0190019BF8
:1016F00012680749B2FBF1F253430193019B5A1E52
:101700000192002BFAD102B0704700BF0C000020FC
:10171000404B4C00F8B54FF0C043134D18700746CE
:101720003220FFF7E1FF2E780120FFF7DDFF3402C2
:101730002E780120FFF7D8FF26432C783602344359
:1017400001202602FFF7D0FF2C78EF2F44EA060491
:1017500005D10520FFF7C8FF2B7824021C439620F3
:10176000FFF7C2FF2046F8BD0000046010B50C4C26
:10177000002204212046FFF7BFF80220FEF758FFA1
:10178000012204212046FFF7B7F84FF0C0430122A1
:101790001A7003F58023FF221A701A701A7010BD98
:1017A000000C02401FB5FFF7E1FF4FF47A70FEF71F
:1017B0003FFFD320FFF7AEFF0849024601A801F022
:1017C00095F801A8FEF704FD4FF47A7382B201A9DF
:1017D0000348FFF7C1FE05B05DF804FB4B3100087C
:1017E00004C401202DE9F0414FF0C04501262E70C0
:1017F0007820FEF71DFF2823334C2B70C0232B705D
:10180000262323703046FFF76FFF4FF01108C123E6
:101810002B70304684F80080FFF766FFC5232B70DD
:10182000352323703E2323703046FFF75DFFC72327
:101830002B70BE2323703046FFF756FF36232B70E4
:10184000482323703046FFF74FFF3A232B70552370
:1018500023703046FFF748FFB12300272B703D234C
:10186000277030462370FFF73FFF2A232B70EF23AA
:1018700027702770277023702B232B703F2327702E
:1018800027702670237034232B70B7232B70072307
:101890002370B6232B700A232370822323702723FF
:1018A00023706420277085F80080FEF7C1FE29238D
:1018B0002B706420FEF7BCFE2C232B700520BDE8A6
:1018C000F041FEF7B5BE00BF0000046070B54FF0F8
:1018D000C0452A242C700B4C060AC0B2267020701A
:1018E000100AD2B2207022702B222A700A0A2270AB
:1018F000C9B21A0ADBB22170227023702C232B701C
:1019000070BD00BF0000046010B50B4614460246CF
:10191000FFF7DCFF024B220AE4B21A701C7010BD04
:101920000000046010B50F4B1B7803F0FD02012A84
:1019300004460FD140F23F13EF2200210846FFF783
:10194000C5FF094A210A4FF49633013B1170147008
:10195000FBD110BD022B01D0042BF2D1EF2340F2BA
:101960003F12EAE708000020000004600328114A43
:10197000114B0BD0042810D002284FF0C04113D1D6
:10198000107036220A7028221A70704710704FF0BB
:10199000C042362111704822F6E710704FF0C04265
:1019A00036211170E822EFE70120107036220A700C
:1019B0008822E9E7080000200000046070B55C1A86
:1019C000161A013406FB0444BDF81050B4F5963FD6
:1019D0009BB292B289B280B228BF4FF49634FFF71F
:1019E00075FF044B2A0AEDB204B970BD1A70013CB0
:1019F0001D70F9E7000004602DE9F74F9846274B6A
:101A00001B78022B0F460646BDF8341042D0042B3B
:101A10000BBFF0234FF4A0734FF4A070F020864268
:101A200035DA9F4233DA062303FB0163002B2EDDF8
:101A300007EBC10100292ADDAF2A84BF0132D2B2EF
:101A4000203A4FF01209164B09FB02F90024112C21
:101A500018BF09EB040204EB070A14BF33F812B0F5
:101A60004FF0000B00251FFA8AFA0BFA05F2120458
:101A700007D5A8194246514680B20193FFF744FFAB
:101A8000019B01350C2DF0D10134122CDFD103B0B4
:101A9000BDE8F08FF0234FF4A070C0E708000020ED
:101AA000543100082DE9F74F9DF83470BDF830B07F
:101AB00007EB870891469A464FEA4808461E8CB2C3
:101AC00000F1270516F8012F5AB120B20197CDF881
:101AD00000B053464946FFF78FFF4444AE42A4B2DC
:101AE000F0D103B0BDE8F08F10B54C1E2344441E66
:101AF00022449BB292B2FFF7E9FE029B039A04498B
:101B00001A44934200D110BD13F8010B0870F8E796
:101B10000000046030B595B03022002108A800F024
:101B2000DDFE0021142203A800F0D8FE00241D4B86
:101B300001941A6C42F080521A641B6C03F08053BB
:101B40000193019B184B02941A6842F480421A6078
:101B50001B6803F480430293029B012308934FF414
:101B6000803309934FF480030F9304231093A82329
:101B70000225119308A8072313930E951295FEF7DB
:101B8000C1FE0F2303934FF4A053069305214FF496
:101B9000805303A8049505940793FFF787F815B0C1
:101BA00030BD00BF003802400070004000B58FB06B
:101BB000FEF712FDFFF7AEFF1422002107A8002454
:101BC00000F08CFE514B01941A6B514842F0800298
:101BD0001A631A6B02F080020192019A02941A6B46
:101BE00042F001021A631A6B02F001020292029A99
:101BF00003941A6B42F010021A631A6B02F010027F
:101C00000392039A04941A6B42F008021A631B6B46
:101C100003F00803224604930421049BFEF76CFEA4
:101C2000332307A93B48079308940994FEF77EFDE8
:101C30000423079307A901233548089309940A94BC
:101C4000FEF774FD1C2221460DEB020000F046FE5B
:101C500031484FF02043036003F582734360FF2255
:101C60000F2310254FF480560793089309920A9387
:101C70002246112307A90C930B958460C46004616C
:101C800044618461C461046244628662C462046324
:101C9000446384634464FFF744F92A4621461F4D98
:101CA00007A800F01BFE4FF0804244F29F1385E826
:101CB0000C0028464FF4C873EB6005940694AC60A2
:101CC0002C61AC61FFF788FA07A928460796FFF751
:101CD000A7FA05A9284605940694FFF735FB104896
:101CE000104984604FF4E13380E80A000C2343611B
:101CF000C46004618461C461FFF700FC0A480B4BB7
:101D00000360FFF78FF800F06BFDFEE7003802403C
:101D1000000C02400000024064C30120C4C3012043
:101D200004C4012000440040B4C301200008065050
:101D300082B00C4B002100915A6C42F480425A64EC
:101D40005A6C02F480420092009A01911A6C42F09F
:101D500080521A641B6C03F080530193019B02B004
:101D6000704700BF0038024007B50D4B02689A4229
:101D700012D100220B4B0192596B41F04001596383
:101D80005B6B03F04003019350201146019BFEF76B
:101D900075FC5020FEF7A6FC03B05DF804FB00BF05
:101DA00000080650003802400368B3F1804F07B5C1
:101DB00013D1002203F50E330192196C41F0010199
:101DC00019641B6C03F0010301931C201146019B55
:101DD000FEF754FC1C20FEF785FC03B05DF804FB05
:101DE00010B5044688B01422002103A800F076FD47
:101DF0002268144B9A4222D103F5FA330021019153
:101E00001A6C114842F400321A641A6C02F400325F
:101E10000192019A02911A6B42F001021A631B6B44
:101E200003F001030293029B0C2303930223049308
:101E30000323069303A907230793FEF777FC08B053
:101E400010BD00BF0044004000000240F0B587B064
:101E50001422002101A800F041FD154B1C6824BB91
:101E600001221A60134B00949A6B134842F001024E
:101E70009A639B6B03F001030093009B02274FF4CE
:101E8000F06303260C2501A901930297049605959A
:101E9000FEF74CFC4EF2B30301A9084801930297E8
:101EA000039404960595FEF741FC07B0F0BD00BF12
:101EB00034C301200038024000100240000C0240F0
:101EC0007047FEE7FEE7FEE7FEE7704770477047A2
:101ED000FEF79CBB0148FFF777B800BFC4C30120E1
:101EE0000148FEF7F2BF00BFB4C3012008B50A4B9A
:101EF0001968024609B90949196018686946024417
:101F00008A4206D900F0C0FC0C2303604FF0FF307A
:101F100008BD1A6008BD00BF38C301204CC60120AF
:101F2000054BD3F8882042F47002C3F888204FF0A4
:101F300000629A60704700BF00ED00E010B500231A
:101F4000CA5CC254CA185478C2180233082B5470A1
:101F5000F6D110BD10B5064A0023C45C9C54C418C9
:101F60009918023364784C70082BF6D110BD00BF6D
:101F70004DC40120134B1B68062B22D8DFE803F069
:101F8000040A0E1115191D000F4B18780F4B03EBA7
:101F9000C00004E00C4B18780D4BF8E70D48FFF734
:101FA000D9BF094B18780C4BF1E7074B18780B4B4E
:101FB000EDE7054B18780A4BE9E7034B1878094B16
:101FC000E5E7704744C301204CC4012059C20120F9
:101FD00029C2012079C2012081C2012049C2012009
:101FE00019C2012091C2012013B592B900F00F026D
:101FF0000009431C501C0A2460435C43009100F11B
:10200000090204F10903611C0130FFF7D7FC02B09B
:1020100010BD1823B0FBF3F403FB140080B2A3B28D
:10202000E9E7012804D002284FF0FF3018BF002054
:102030007047012805D0022814BF00206FF00F0060
:102040007047102070470000044A4FF4F0730121DC
:1020500099540133B3F5F87FFAD1704756C4012083
:102060002DE9F843144FDFF85480DFF8549004460C
:102070000E460025785DEA19FFF7D3FF0346507836
:10208000FFF7D7FF98F8002018440444A4B262B1C7
:1020900019F8042022B94FF6E0712046FFF7A4FF9B
:1020A0000235082DE6D1BDE8F883002EF3D1324683
:1020B00044F67441F1E700BF4DC4012040C3012044
:1020C00056C40120F0B5124D124F2A6885B04FF664
:1020D000FF740126394602A800F008FC234602A836
:1020E0008DE850009822B621FFF7DCFC2A683946BB
:1020F000324402A82A6000F0F9FB8DE8500000236A
:102100009822B62102A8FFF7CDFC05B0F0BD00BFB4
:102110003CC30120F53E00082DE9F0471D4C1E4E42
:102120001E4FDFF890A0DFF890902046FEF7C0FE2B
:102130000723B0FBF3F3C3EBC303C51A184B3D6091
:1021400013F8058086F800802046FEF7B1FE34784B
:10215000B0FBF4F303FB1404E4B28AF80040FFF789
:1021600009FF10491048FFF7E9FED9F800303B603D
:102170000E4F3B7833700E4E33788AF80030FFF7FD
:10218000F9FE87F800803470C9F80050BDE8F047C8
:10219000FFF798BFB4C3012055C4012044C30120F8
:1021A00012C201204DC4012044C4012055C30120A6
:1021B00054C301204CC4012050C30120F0B5124D7E
:1021C000124F2A6885B04FF6FF740126394602A8DF
:1021D00000F08CFB234602A88DE850006922B6214E
:1021E000FFF760FC2A683946324402A82A6000F0F2
:1021F0007DFB8DE8500000236922B62102A8FFF77D
:1022000051FC05B0F0BD00BF4CC30120F53E0008F5
:10221000F8B5114E074600257324705DAB19FFF722
:1022200000FF04445878FFF704FF1028A4B20CD133
:102230001834A4B2012267B144F674412046023535
:10224000FFF7D2FE082DE8D1F8BD1030F2D1183CCE
:10225000EFE74FF6FF71F1E744C4012073B54FF685
:10226000FF7444F6744600944FF4A073EF220021EB
:10227000B420FFF7A3FB00960A23EF220021B4202D
:10228000FFF79CFB00964FF4A073EF224FF49B7175
:10229000B420FFF793FB012500964FF4A073EF22C3
:1022A0000021EB20FFF78AFB8DE8300000230C2291
:1022B000B6212148FFF7F6FB00965423EF22532165
:1022C000B420FFF77BFB8DE8300000235722B621B6
:1022D0001A48FFF7E7FB8DE8300000236922B6219A
:1022E0001748FFF7DFFB00968323EF228221B420FB
:1022F000FFF764FB8DE8300000238622B6211148E9
:10230000FFF7D0FB0096AD23EF22AC21B420FFF7FE
:1023100055FB8DE830000023B022B6210A48FFF7B4
:10232000C1FB8DE830000023C022B6210748FFF72B
:10233000B9FB02B070BD00BFDA3E0008DF3E000806
:10234000E53E0008E73E0008ED3E0008F33E0008C9
:1023500037B544F67440FFF7E5FA4FF6FF740821ED
:10236000084600940A23AA22FFF728FB00944FF4A2
:102370009C73AD220821AB20FFF720FB009440F2B4
:102380003913AA2240F237110820FFF717FB082162
:10239000009440F239130A220846FFF70FFB0A2483
:1023A0001F252246204600954FF49B730A210A34CC
:1023B000FFF704FBAA2CF4D10A241F25234621464B
:1023C0000095AA220A200A34FFF7F8FAB4F59B7F99
:1023D000F4D103B0BDE83040FFF740BFF0B5184A74
:1023E00087B010685168128903AB03C30DF10B0667
:1023F0001A80412401254FF6FF7716F8012F019529
:1024000020B24FF6FF73972100970B34FFF7F4FAD1
:10241000A4B24FF49670FEF70BF9AF2CEDD14FF448
:102420009670FEF705F948F2C713009301954FF631
:10243000FF73A62250210348FFF734FB07B0F0BD1D
:1024400040310008D13E000808B5FFF7ABF9FFF7AF
:10245000C9F94FF4FA70FEF7EBF80320FFF786FA9C
:102460000020BDE80840FFF75DBA000070B5104ECF
:1024700082B200F00F010023F05C9D19FFF7D1FD3F
:1024800004466878FFF7D5FD2044024492B209293A
:1024900002F00F0002D980B210B970BD0F2804D02D
:1024A0000233082BE8D1012070BD002070BD00BFB1
:1024B0004DC40120F8B5134E134F02460023F05CC3
:1024C0009D19FFF7AEFD04466878FFF7B2FD204482
:1024D000024492B2002902F00F000ADD0F280ED04C
:1024E000B818407801280AD00233082BE7D1012020
:1024F000F8BD80B220B1B81810F8010CF2E7002046
:10250000F8BD00BF4DC4012056C401202DE9F041A3
:102510000F4E104F044600234FF00108F05C9D1948
:10252000FFF77FFD02466878FFF783FD10442044E3
:1025300084B229B13A5D012A04D10020BDE8F081BE
:1025400007F804800233082BE8D10120BDE8F081B0
:102550004DC4012056C401200001074A00F10F03B9
:10256000984201DD00207047815C012901D10130D2
:10257000F6E70120704700BF56C401202DE9F0475F
:10258000DFF85C90074604010FB9BDE8F087651ECF
:10259000A0464D4404F10F0AD04502DD013F103C36
:1025A000F2E71FFA88F6002244F674413046FFF73E
:1025B0001BFD15F80F3C05F8013F2BB100224FF62B
:1025C000E0713046FFF710FDA6F11000002244F63E
:1025D000744180B2FFF708FD08F10108DCE700BF95
:1025E00056C40120F8B50E4B0E4E1D880024305DF8
:1025F000A219FFF716FD03465078FFF71AFD18449D
:102600000544ADB22F093846FFF7A6FF20B938467A
:10261000FFF7B4FFFFF7D2FD0234082CE7D1F8BD75
:10262000100000204DC40120F8B501213548FEF707
:102630005DF9D0B1334C01212046FEF757F906462B
:102640000028F8D1304C25884FF0FF312846FFF79D
:1026500031FF002855D028463146FFF701FD20887C
:10266000013880B2208001212CE002212548FEF7AC
:102670003DF958B3234C02212046FEF737F90646B0
:102680000028F8D1204D214C014628882778FFF7F3
:10269000E7FC1F4A23781278013A9342BABF01330C
:1026A00023702670FFF766FC01212888FFF72EFFB4
:1026B00018B12878FFF7DAFE10B92770FFF75AFC37
:1026C00028880121BDE8F840FFF7CABC10210D4859
:1026D000FEF70CF9A8B10B4C10212046FEF706F9C5
:1026E00006460028F8D1084C258801212846FFF726
:1026F000E1FE30B128463146FFF7B2FC20880130B8
:10270000AFE7F8BD00000240100000204CC40120DB
:1027100055C401200368B3F1804FF7B552D12A4C5C
:102720002A482368202101332360FEF7DFF808B12F
:1027300008232360264F38881030012180B2FFF72C
:10274000E5FE05463E4638888DB10021FFF788FC3E
:102750002368072B04DD3B8810333B800023236074
:102760003088012103B0BDE8F040FFF779BC29466D
:102770002560FFF7CBFEFFF735FF2846FFF748FD42
:10278000FFF7CAFC082001213880FFF7BFFE05468D
:1027900070B901240F48FEF7FEFB4FF6FF7301945A
:1027A000009585223C210C48FFF77CF90B4B1C70EF
:1027B00038880121FFF754FC012003B0BDE8F04048
:1027C000FFF726BD03B0F0BD48C301200000024062
:1027D00010000020C4C30120C83E000840C30120EF
:1027E00007B5FFF731FE4FF4E13301930F4B009330
:1027F000F0231A463C210020FFF776F9FFF7EEFDA3
:102800004FF4FA60FDF714FFFFF7A2FDFFF71CFC81
:10281000FFF782FCFFF780FC0120FFF7F9FC04487A
:10282000FEF7A9FBFFF700FFFCE700BF1200002046
:10283000C4C30120DFF834D0002103E00C4B5B5807
:10284000435004310B480C4B42189A42F6D30B4AC2
:1028500002E0002342F8043B094B9A42F9D3FFF708
:102860005FFB00F017F8FFF7A1F9704700000220A6
:102870003C3F00080000002018C3012018C30120BD
:102880004CC60120FEE70000014B1868704700BFEE
:10289000B4C2012070B50D4E0D4CA41BA410002530
:1028A000A54209D10B4E0C4C00F03EFCA41BA41019
:1028B0000025A54205D170BD56F825309847013551
:1028C000EEE756F8253098470135F2E7343F000827
:1028D000343F0008343F0008383F000802440346F4
:1028E000934200D1704703F8011BF9E70EB400B51D
:1028F0009CB04FF402711DABADF81410029006901D
:102900006FF000410A48049107914FF6FF7153F8A8
:10291000042BADF816100068019302A900F066F8C8
:10292000029B00221A701CB05DF804EB03B07047E4
:10293000B4C201202DE9F0478E689E4282460C46C3
:102940009146984635D88A8912F4906F31D025681F
:1029500009696F1A6569022305EB450595FBF3F5D7
:1029600008F101033B449D4238BF1D46530531D554
:10297000294600F039FB064650B90C23CAF800304E
:10298000A38943F04003A3814FF0FF30BDE8F087F7
:102990003A46216900F0B4FAA38923F4906343F026
:1029A0008003A381266165613E44ED1B2660A5601E
:1029B0004646464528BF464632464946206800F00E
:1029C000AAFAA3689B1BA36023681E44266000200C
:1029D000BDE8F0872A4600F065FB06460028E1D1F5
:1029E0002169504600F0B2FAC7E700002DE9F04F28
:1029F0009DB0804603938B891C060D4616460FD565
:102A00000B696BB9402100F0EFFA2860286128B902
:102A10000C23C8F800304FF0FF30C5E040236B6155
:102A20000023099320238DF8293030238DF82A3094
:102A30004FF0010B37463C4614F8013B002B3CD1CC
:102A4000B7EB060A0BD05346324629464046FFF7FD
:102A500071FF013000F0A380099B534409933B7838
:102A6000002B00F09C8000234FF0FF32049307936B
:102A7000059206938DF853301A9305222178504819
:102A8000FDF7AEFB671C049BD8B9D90644BF2022D2
:102A90008DF853201A0744BF2B228DF8532022783B
:102AA0002A2A16D0079A00210A20274601343B78AB
:102AB000303B092B51D9C9B111E0252BC0D0274695
:102AC000B9E73F4A801A0BFA00F0184304903C46DD
:102AD000D3E7039A111D12680391002A01DB0792C4
:102AE00004E0524243F00203079204933B782E2BFA
:102AF0000ED17B782A2B07F1010132D1039B1A1DDD
:102B00001B680392002BB8BF4FF0FF3302370593C9
:102B10002C4C397803222046FDF762FB38B1402364
:102B2000001B03FA00F0049B034304930137397838
:102B300025488DF8281006227E1CFDF751FB002841
:102B400035D0224BFBB9039B073323F0070308332F
:102B50000393099B4B4409936CE700FB023201216C
:102B6000A3E70023059318460A240F4601313A785B
:102B7000303A092A03D9002BCAD00590C8E704FBD4
:102B800000200123F1E703AB00932A46104B04A970
:102B90004046AFF30080B0F1FF3F8146D9D1AB8909
:102BA0005B063FF538AF09981DB0BDE8F08F03AB69
:102BB00000932A46064B04A9404600F081F8EAE754
:102BC000F83E0008FE3E0008023F0008000000003A
:102BD000352900082DE9F04791461F468A680B69A0
:102BE000DDF820809342B8BF1346C9F8003091F851
:102BF000432006460C4612B10133C9F80030236861
:102C0000990642BFD9F800300233C9F80030256870
:102C100015F0060507D104F1190AE368D9F8002078
:102C20009B1A9D4229DB94F843302268003318BF79
:102C3000012392062ED404F1430239463046C047A0
:102C4000013021D02368E568D9F8002003F006039D
:102C5000042B08BFAD1AA36822690CBF25EAE575ED
:102C600000259342C4BF9B1AED184FF000091A3497
:102C70004D451BD10020BDE8F0870123524639465F
:102C80003046C047013003D14FF0FF30BDE8F08738
:102C90000135C2E7E1185A1C302081F84300224474
:102CA00094F8451082F843100233C4E7012322460A
:102CB00039463046C0470130E6D009F10109D7E76F
:102CC0002DE9F04317460A7E85B06E2A98460646DF
:102CD0000C460C9B01F1430E00F0BC801AD8632A0D
:102CE0002ED00AD8002A00F0C880582A00F08A8026
:102CF00004F1420584F842202AE0642A01D0692ABE
:102D0000F6D121681A6811F0800F23D0111D1960C7
:102D1000136827E0732A00F0B48008D86F2A2AD0FD
:102D2000702AE5D10A6842F020020A6003E0752AA1
:102D300021D0782ADCD1782284F845206E4964E0DD
:102D40001A6801F14205111D1960136884F84230B8
:102D50000123A3E011F0400F02F104011960D7D064
:102D6000B2F90030002B03DA2D225B4284F84320B5
:102D700062490A2217E02068196810F0800F03D01A
:102D8000081D18600B6806E010F0400F01F1040008
:102D90001860F7D00B8859496F2A14BF0A220822FD
:102DA000002084F843006568A560002DC0F29C8077
:102DB000206820F004002060002B3FD1002D40F05F
:102DC00095807546082A0BD12368DA0708D5236950
:102DD00062689A42DEBF302305F8013C05F1FF35F9
:102DE000AEEB05032361CDF800803B4603AA2146E4
:102DF0003046FFF7EFFE013055D14FF0FF3005B000
:102E0000BDE8F08381F845203C492268186812F03B
:102E1000800F00F104051D6001D0036802E0550633
:102E2000FBD50388D00744BF42F0200222601BB9C3
:102E3000226822F0200222601022B1E77546B3FB1F
:102E4000F2F002FB1033CB5C05F8013D034600288D
:102E5000F5D1B7E708681A68496910F0800F04D007
:102E6000101D18601368196007E010F0400F02F1A0
:102E7000040018601368F6D019800023236175469A
:102E8000B1E71A68111D19601568626800212846AB
:102E9000FDF7A6F908B1401B606063682361002359
:102EA00084F843309FE723692A4639463046C047B5
:102EB0000130A2D023689B0707D5002504F119092A
:102EC000E368039A9B1A9D4205DBE068039B9842E6
:102ED000B8BF184693E701234A4639463046C047F3
:102EE00001308AD00135EBE7002BA7D10B7884F8AD
:102EF000423004F1420565E71A3F0008093F000827
:102F000010B5431E0A44914200D110BD11F8014B87
:102F100003F8014FF7E7884210B501EB020303D82D
:102F2000421E99420CD110BD9842F9D28118D21A92
:102F3000D34200D110BD13F8014D01F8014DF7E760
:102F400011F8014B02F8014FEBE7000038B50546D8
:102F5000002945D051F8043C0C1F002BB8BFE418E1
:102F600000F0D6F81F4A1368104633B96360146046
:102F70002846BDE8384000F0CCB8A3420CD92168FF
:102F80006218934204BF1A685B68636004BF5218FA
:102F900022600460ECE713465A680AB1A242FAD9EB
:102FA00019685818A0420BD1206801445818824271
:102FB0001960DDD1106852685A6001441960D7E782
:102FC00002D90C232B60D3E7206821188A4204BF62
:102FD00011685268626004BF091821605C60C7E72D
:102FE00038BD00BF58C3012070B5CD1C25F00305C6
:102FF00008350C2D38BF0C25002D064601DBA942F3
:1030000003D90C233360002070BD00F081F8234AFF
:103010001468214691B9224C23681BB9304600F050
:1030200067F820602946304600F062F8431C26D13C
:103030000C233360304600F06CF8E4E70B685B1B50
:103040001AD40B2B0FD90B60CD50CC18304600F0A2
:1030500060F804F10B00231D20F00700C31A1BD0F9
:103060005A42E25070BD8C420DBF63684B6863608A
:10307000136018BF0C46E9E70C464968CAE7C41C50
:1030800024F00304A04205D0211A304600F030F8A5
:103090000130CDD02560D9E770BD00BF58C30120F5
:1030A0005CC30120F8B5074614460E4621B9114607
:1030B000BDE8F840FFF798BF22B9FFF747FF254664
:1030C0002846F8BD00F026F884420FD9214638463C
:1030D000FFF78AFF05460028F2D031462246FFF767
:1030E0000FFF31463846FFF731FFE9E73546E7E79E
:1030F00038B5064C0023054608462360FEF7F6FE69
:10310000431C02D1236803B12B6038BD48C601209F
:103110007047704751F8040C0028A0F10400BCBFB0
:103120000B58C01870470000F8B500BFF8BC08BCC9
:103130009E467047F8B500BFF8BC08BC9E46704775
:10314000456C656B74726F6E696B00307825303832
:103150006C580000000000000000000000000000AB
:10316000000000000000000000000000000000005F
:1031700000000000000000000000000C000C000C2B
:10318000000C000C000C000C000C000C000C000CDF
:103190000000000C000C0000000000000000001BFC
:1031A000001B001B001B001B0000000000000000B3
:1031B000000000000000000000000000000000000F
:1031C00000008019801980198019C07FC07F801984
:1031D0000033C07FC07F0033003300330033000072
:1031E000000000000000001E003F80758065007434
:1031F000003C001E00078005806580658075003FEB
:10320000001E0004000400000000007000D840D838
:10321000C0D880D900730006000C801BC036C06681
:10322000C046C00680030000000000000000001E31
:10323000003F003300330033001E000CC03CC0666A
:10324000806380618063C03E801C0000000000003D
:103250000000000C000C000C000C000C0000000032
:10326000000000000000000000000000000000005E
:1032700000000000800000010003000600060004BA
:10328000000C000C000C000C000C000C00040006EC
:103290000006000300018000002000100018000C50
:1032A000000C0004000600060006000600060006EA
:1032B0000004000C000C0018001000200000000C9E
:1032C000002D003F001E0033000000000000000041
:1032D00000000000000000000000000000000000EE
:1032E000000000000000000C000C000C000CC0FFEF
:1032F000C0FF000C000C000C000C000000000000DF
:1033000000000000000000000000000000000000BD
:103310000000000000000000000000000000000CA1
:10332000000C000400040008000000000000000081
:1033300000000000000000000000001E001E000051
:10334000000000000000000000000000000000007D
:10335000000000000000000000000000000000006D
:10336000000000000000000C000C00000000000045
:10337000000000030003000300060006000600062C
:10338000000C000C000C000C0018001800180000C5
:10339000000000000000001E003F003380618061DB
:1033A0008061806D806D8061806180610033003F4D
:1033B000001E00000000000000000006000E001EBD
:1033C000003600260006000600060006000600067D
:1033D0000006000600060000000000000000001EBD
:1033E000003F807380618061800100030006000C53
:1033F000001800300060807F807F00000000000027
:103400000000001C003E006300630003000E000E7D
:1034100000038001800180618073003F001E000076
:103420000000000000000006000E000E001E001E3E
:103430000016003600360066807F807F000600069A
:1034400000060000000000000000007F007F006018
:1034500000600060006E007F8063800180018061F9
:103460008073003F001E0000000000000000001EEE
:10347000003F803380610060006E007F8073806158
:10348000806180618033003F001E0000000000006A
:103490000000807F807F800100030003000600069B
:1034A000000C000C000C00080018001800180000A8
:1034B000000000000000001E003F8063806180610A
:1034C0000021001E003F8061806180618061003FBB
:1034D000001E0000000000000000001E003F0073FE
:1034E0008061806180618073803F801D8001806188
:1034F0000073003F001E00000000000000000000FC
:10350000000000000000000C000C000000000000A3
:10351000000000000000000C000C00000000000093
:10352000000000000000000000000000000C000C83
:1035300000000000000000000000000C000C00046F
:10354000000400080000000000000000800080036C
:10355000000E003800600038000E8003800000007C
:10356000000000000000000000000000000000005B
:103570000000807F807F00000000807F807F00004F
:10358000000000000000000000000000000000003B
:103590000000000000400070001C000780010007D0
:1035A000001C00700040000000000000000000004F
:1035B0000000001F803FC071C060C000C0018003D8
:1035C0000007000E000C000C0000000C000C0000B6
:1035D000000000000000001E003F80318071806309
:1035E000806F806D806D806F806700600032003E6C
:1035F000001C0000000000000000000E000E001B78
:10360000001B001B001B80318031803F803F8031D8
:10361000C060C060C0600000000000000000007CCE
:10362000007E0063006300630063007E007E006331
:10363000806180618063007F007E000000000000E8
:103640000000001E003F803180610060006000606B
:1036500000600060006080618031003F001E00005B
:10366000000000000000007C007F00638063806138
:103670008061806180618061806100630063007EA1
:10368000007C0000000000000000807F807F006060
:10369000006000600060007F007F006000600060EC
:1036A0000060807F807F0000000000000000807FBD
:1036B000807F0060006000600060007F007F00602D
:1036C000006000600060006000600000000000001A
:1036D0000000001E003F80318061006000600060DB
:1036E00080638063806180618031803F001E0000C4
:1036F0000000000000008061806180618061806165
:103700008061807F807F8061806180618061806175
:1037100080610000000000000000003F003F000C3E
:10372000000C000C000C000C000C000C000C000C39
:10373000000C003F003F000000000000000080017E
:103740008001800180018001800180018001800171
:10375000806180618073003F001E00000000000057
:103760000000C0608061006300660066006C007845
:10377000007C00660066006380618061C0600000BC
:103780000000000000000060006000600060006059
:103790000060006000600060006000600060807F8A
:1037A000807F0000000000000000C071C071C07B7D
:1037B000C07AC06AC06AC06EC064C060C060C060C9
:1037C000C060C060C06000000000000000008071A8
:1037D0008071807980798079806D806D806D806561
:1037E000806780678067806380630000000000005E
:1037F0000000001E003F00338061806180618061B5
:1038000080618061806180610033003F001E0000A4
:10381000000000000000007E007F80638061806106
:1038200080618063007F007E006000600060006057
:1038300000600000000000000000001E003F003398
:103840008061806180618061806180618065806766
:103850000033803F401E0000000000000000007E9A
:10386000007F8063806180618063007F007E0066EE
:103870000063006380618061C060000000000000A0
:103880000000000E001F8031803100300038001E23
:1038900000078003806180618031003F001E0000CE
:1038A000000000000000C0FFC0FF000C000C000C76
:1038B000000C000C000C000C000C000C000C000CA8
:1038C000000C000000000000000080618061806149
:1038D00080618061806180618061806180618061E0
:1038E0008073003F001E0000000000000000C06068
:1038F000C060C060803180318031001B001B001B24
:10390000001B000E000E000E00040000000000006E
:103910000000C0C0C0C0C0C0C0C0C0C0C0CC804CCF
:10392000804C805E80528052807380618061000094
:10393000000000000000C0C0806080610033003BD8
:10394000001E000C000C001E001F003B80718061F7
:10395000C0C00000000000000000C0C080618061A5
:1039600000330033001E001E000C000C000C000C85
:10397000000C000C000C0000000000000000803F64
:10398000803F8001000300030006000C000C0018BB
:10399000001800300060807F807F00000000000081
:1039A000000F000F000C000C000C000C000C000CB1
:1039B000000C000C000C000C000C000C000C000CA7
:1039C000000F000F0000001800180018000C000C79
:1039D000000C000C000600060006000600030003B1
:1039E0000003000000000000001E001E000600068C
:1039F0000006000600060006000600060006000697
:103A00000006000600060006001E001E0000000C56
:103A1000000C001E00120033003380618061000042
:103A20000000000000000000000000000000000096
:103A30000000000000000000000000000000000086
:103A40000000000000000000000000000000000076
:103A5000E0FF0000000000380018000C000000002B
:103A60000000000000000000000000000000000056
:103A70000000000000000000000000000000000046
:103A80000000001F803F80618001801F803F8061B7
:103A90008063807FC03800000000000000000060EC
:103AA000006000600060006E007F80738061806154
:103AB000806180618073007F006E00000000000064
:103AC00000000000000000000000001E003F8073A6
:103AD00080610060006080618073003F001E000014
:103AE0000000000000008001800180018001801D35
:103AF000803F807380618061806180618073803FDE
:103B0000801D000000000000000000000000000018
:103B10000000001E003F00738061807F807F006096
:103B20008071003F001E0000000000000000C00780
:103B3000C00F000C000C807F807F000C000C000C7C
:103B4000000C000C000C000C000C00000000000039
:103B50000000000000000000801D803F8073806135
:103B60008061806180618073803F801D80018063FF
:103B7000007F003E00000060006000600060006F99
:103B8000807F8071806180618061806180618061FF
:103B90008061000000000000000000060006000038
:103BA0000000003E003E000600060006000600067B
:103BB00000060006000600000000000000060006E7
:103BC00000000000003E003E000600060006000661
:103BD000000600060006000600060046007E003CC7
:103BE00000000060006000600060806100630066AB
:103BF000006C007C0076006300638061C0600000A0
:103C0000000000000000003E003E00060006000626
:103C10000006000600060006000600060006000674
:103C2000000600000000000000000000000000008E
:103C3000000080DDC0FFC0CEC0CCC0CCC0CCC0CCAA
:103C4000C0CCC0CCC0CC00000000000000000000D0
:103C5000000000000000006F807F80718061806143
:103C600080618061806180618061000000000000EF
:103C700000000000000000000000001E003F8073F4
:103C800080618061806180618073003F001E000060
:103C9000000000000000000000000000006E007F37
:103CA000807380618061806180618073007F006EBD
:103CB0000060006000600060000000000000000084
:103CC000801D803F8073806180618061806180732E
:103CD000803F801D80018001800180010000000084
:103CE0000000000000000067803F00390030003015
:103CF00000300030003000300030000000000000D4
:103D000000000000000000000000001E803F8061F5
:103D10000060007F803F80018061007F001E000006
:103D20000000000000000000000800180018007FDC
:103D3000007F001800180018001800180018801FD5
:103D4000800F0000000000000000000000000000E4
:103D5000000080618061806180618061806180613C
:103D60008063807F803D00000000000000000000B4
:103D7000000000000000C060803180318031001BF5
:103D8000001B001B000E000E0006000000000000DB
:103D90000000000000000000000080DD80DD80DD0C
:103DA00000550055005500770077002200220000E2
:103DB0000000000000000000000000000000806122
:103DC00000330033001E000C000C001E00330033D3
:103DD0008061000000000000000000000000000002
:103DE00080618061803100330033001B001B001BA9
:103DF000000E000E000E001C007C00700000000091
:103E0000000000000000C07FC07F800100030006AA
:103E1000000C00180030C07FC07F000000000000D0
:103E20008003800700060006000600060006000E5C
:103E3000001C001C000E000600060006000600061E
:103E40008007800300060006000600060006000644
:103E50000006000600060006000600060006000632
:103E600000060006000600060038003C000C000CAE
:103E7000000C000C000C000E00070007000E000CE8
:103E8000000C000C000C000C003C0038000000008E
:103E9000000000000000000000008038807F004724
:103EA0000000000000000000000000000000000012
:103EB00000000000000000000102030406070809DA
:103EC0000000000001020304456E642047414D4597
:103ED00000446566746572696D004E6578740053C0
:103EE000636F7265003000436F756E74004C6576C9
:103EF000656C003100256400232D302B2000686C98
:103F00004C006566674546470030313233343536FC
:103F10003738394142434445460030313233343535
:0C3F200036373839616263646566000062
:083F2C0084C3FF7F01000000C7
:043F3400B5010008CB
:043F380091010008EB
:103F3C000100000010000000010000000024F4004B
:103F4C0008001842184218421842184218421842E7
:103F5C0018421842184218621863186318631863E1
:103F6C00208320832083208320832083208320832D
:103F7C0018631863186320832083208320A4208473
:103F8C00208320832083208320832083208320830D
:103F9C00208320A420A320832083208320832083BC
:103FAC00208420842084208318631863208320833A
:103FBC00208320A320831883188318831883186305
:103FCC00186218631863208320832083208318834E
:103FDC0018631863186318631863186318631863FD
:103FEC0018631863186318631863186318631863ED
:103FFC001863186318631842104218431863186347
:10400C0018631863186318631863186318631863CC
:10401C0018631863186318621062106218621862D1
:10402C0018621862106210421062186218621862EC
:10403C0018621863186318631042184318631863E6
:10404C0018431042104318431843184218421842A0
:10405C0018421842184210421042104218421042A4
:10406C00104218621862184218421842184218423C
:10407C00184218421842184218421042102210429C
:10408C0010421022104210421842184210421042A4
:10409C0010221022104218421842184218421042A4
:1040AC00104218421842184218421842184218423C
:1040BC0018421842184218421862186218621862A4
:1040CC001862186318631863186218421842184271
:1040DC00184218421842184218421842184210222C
:1040EC00102218421842184218421842184218421C
:1040FC00184218421842184218421022102210225C
:10410C00184210221022102218421842184218424B
:10411C001022184218421842102210211022184264
:10412C0018421842184218421842184218421842B3
:10413C001842184218421842186218631862186321
:10414C00186318621862186218621863186318638F
:10415C00186318421862186318631863186318639D
:10416C00186320832083208320831863208320837B
:10417C0020832083208320831863186318631863BB
:10418C002083208420842083208320832083208309
:10419C0020A320A420A320A320A320A320A320831A
:1041AC0018832083208320842084208420831883F8
:1041BC00188318631863188318831883188318835B
:1041CC00188318831883188318631883188318832B
:1041DC0018631883188318831883208320A420A4C1
:1041EC002084188318831863186318631883188342
:1041FC00188318631863188318621883188318833C
:10420C0018831862186218621862186318631862AF
:10421C0018621863186318631863186318631863BB
:10422C0018631863186318631863186318431843EA
:10423C0018431842184210421042104218421842B9
:10424C0018421863186318621842186318621842EF
:10425C00184218421842184218421842104218428A
:10426C0018431022104210421842184218421042B1
:10427C001042104210421842184218431843184278
:10428C00104218421842184218421842186218423A
:10429C0018421842184218621862186218621862A2
:1042AC001882186218631862186218421862184251
:1042BC001842184218421842184218421842184222
:1042CC001842184218421842184218421842184212
:1042DC00184218421842184218421022102210227A
:1042EC0018421022102210221842102210221022E2
:1042FC0010221842184218421022102210221022AA
:10430C0010221842184218421842184218421842F9
:10431C001842102210221842186218621862186291
:10432C001863186218421842184218421862184250
:10433C00184218421842184218421842186318635F
:10434C001843186320832083186318631863186359
:10435C001863208318631863186218421842186394
:10436C0018631863186318631843184218621863AB
:10437C001863208320831883188318831883186389
:10438C001863208320832083208320832083188339
:10439C001883186318631863188318831883188399
:1043AC0018831863186318631863186320831883C1
:1043BC001883186318831883188320832084208320
:1043CC001883188318831883186318631863188369
:1043DC0018831883188318831883188318831883F9
:1043EC0018831883188318831883188318831883E9
:1043FC001863188318831863186318631863188379
:10440C0018631863186318631863186318631863C8
:10441C0020831863186318631843186218631863B1
:10442C001863208320831863186318631863186358
:10443C00186318621842184318431843184318435A
:10444C001863104218421843184318431843184372
:10445C0018631042184318631863186318631863C1
:10446C0018431863186218421842186218621862CE
:10447C00184218421862186218621862186218639F
:10448C00186318621862186218421842186218628F
:10449C001862184218421842184218421842184220
:1044AC001842184218421842184218421842184230
:1044BC001842184218421842184218421842184220
:1044CC001842184218421842184210221022102288
:1044DC001022184218421842102218421842184250
:1044EC001022184218421842184218421022184240
:1044FC0018421022184218421842184218421862E8
:10450C00186218631862186218421842184218424E
:10451C0018421842184218421842184218421842BF
:10452C0018421842186318631863186318631863E9
:10453C0018621863186218631862184218421843FC
:10454C00184318421842184218421842184218626E
:10455C00186318631862186318631863186218627A
:10456C001862186318631863186318631863186368
:10457C001863186318631863186318631863186357
:10458C001863186318631863184318621863186368
:10459C0018631042104218421862186318631863AB
:1045AC001843186318631863186318631863186347
:1045BC0018631883188318831863186318631862B8
:1045CC001862186218631863186318631863186309
:1045DC0018621863186318631863186318631863F8
:1045EC0018631863186318631863186318632083BF
:1045FC002083208318631863186318631863186387
:10460C001863186318631863186320832083186376
:10461C00208318631863186318631863186318638E
:10462C0018631863186318631863186318631863A6
:10463C0018631843186318631863186318631863B6
:10464C001863186318631862186218621863186389
:10465C00186218631862186218621862186218627D
:10466C0018621842186218621842184218621862CE
:10467C00186218621842184218421842184218421E
:10468C00184218421842184218421842184218424E
:10469C00184218421842184218421842184218423E
:1046AC0018421842184218421842102210221022A6
:1046BC0010221022102210221022184218421842E6
:1046CC0018421842186218621842184218421842CE
:1046DC0018421842184218421842184218421842FE
:1046EC0018421862186218421842184218421842AE
:1046FC0018621842184218421842184218421842BE
:10470C00184218421842186218621862186218622D
:10471C0018621862186218621862186218621842DD
:10472C00184218421842184218421862186318634B
:10473C001862186318631863186318631862186298
:10474C001862186318631863186318631863186386
:10475C0018631842184318431863186318631863D6
:10476C0018431863186318431843186218631863C6
:10477C001863186218421842186218631863186399
:10478C001042186318631863186318631862186270
:10479C00186218621862186218621862186218623D
:1047AC00186210421042186218621862186218627D
:1047BC001862186318631863186318631863186316
:1047CC001863186318631863186318631863186305
:1047DC0018631863186318631863186318631863F5
:1047EC0018631862186318621862186318631863E8
:1047FC0018631863186318631863184318631863F5
:10480C0018631863186318631863186318631863C4
:10481C0018631863186318631863186318631863B4
:10482C0018631862186318631862186218631863A7
:10483C00186320831863186318631863186318626D
:10484C0018621862186218621842184218621862CC
:10485C00186218621842184218421842184218423C
:10486C00184218421842184218421842184218426C
:10487C00184218421842184218421842184218425C
:10488C001842184218421022102210221022102214
:10489C001022102210211021102110221022184257
:1048AC00184218421842184218421842184218422C
:1048BC00184218421842184218421842184218421C
:1048CC00184218421842184218421842184218420C
:1048DC0018421842184218421842184318421842FB
:1048EC00184218421842186218621862186218624C
:1048FC00186218421842184218421862184218429C
:10490C0018421842184218421842184218421842CB
:10491C0018421862184218421842184210421042AB
:10492C0018621863186318631863186318431843E4
:10493C0018431843184318631863186318631863F3
:10494C0018431863186318431842186218631863E5
:10495C001862186318621862186218631863186377
:10496C001863184318631863186318631862186285
:10497C00186218621862186218621862186218625B
:10498C00186218621862186218621862186218624B
:10499C001863186318631863186318431863186353
:1049AC0018631842184218431863186318431843C5
:1049BC0018421863184318421843186318631042BE
:1049CC001042186218621842184218631862184292
:1049DC0018421842184218421842184218431863D9
:1049EC0018631863186318631863186318631863E3
:1049FC001863186318431843186318631863186313
:104A0C001863184218621862184218421862186328
:104A1C0018631863186318631863186318631862B3
:104A2C00184218621862186218421842184218622A
:104A3C00184218421842186218621862184218423A
:104A4C00186218421842184218421842184218426A
:104A5C00184218421842184218421842184218427A
:104A6C0018421842184210221022184218421842BA
:104A7C001022184210221022102210221022102272
:104A8C00184218421842184218421842184218424A
:104A9C00184218421842184218421842184218423A
:104AAC00184218421842184218421842184218422A
:104ABC001842184218421842184218431842184219
:104ACC0018421842184218621862184218421862AA
:104ADC0018621842184218421842184218421842DA
:104AEC0018421843184318431843184318431842E4
:104AFC001842186318621842184218421842184299
:104B0C001862186318631863186318631843184302
:104B1C001842184218431843186318631863184353
:104B2C001842184218421842184218421862186368
:104B3C001863186318621862186218621862186297
:104B4C001862186218621863186318621862186386
:104B5C001863186318621862186218621862186277
:104B6C001862104210421862104210421042104259
:104B7C001863186318631863186318431863186371
:104B8C001863184218421842184218431843184325
:104B9C0018631863184318421842104218631042E5
:104BAC0010421842186218421842186218621842D1
:104BBC0018421842184218421842184218631863D7
:104BCC001863184318431842184318631863186382
:104BDC0018431863184318421843184318421842D4
:104BEC001843186318631863184218421843184284
:104BFC001842186318631863186318621842184235
:104C0C001862186318631862184218421842184246
:104C1C001842186218621862186218621842184218
:104C2C001862184218421842184218421842184288
:104C3C001842184218421842184218421842184298
:104C4C001842184218421842184218421842184288
:104C5C0018421842184218421842184210221022C8
:104C6C001842184218421842184218621862184228
:104C7C001842184218421842184218421842184258
:104C8C001842184218421842184218421842186228
:104C9C0018631863186218421842184318421842D5
:104CAC0018421842184218421862184218621862C8
:104CBC001882186218421842184218421842186298
:104CCC0018621842184318431842184218421842E6
:104CDC0018621863184218421842184218421842B7
:104CEC001863186318631863186318631843184320
:104CFC001843184218421843186318631863184372
:104D0C0018421842184218421022184218621863AE
:104D1C0018631863186218621862186318621862B4
:104D2C0018631862186218621862186218621863A5
:104D3C001863186318621862186218621862186295
:104D4C0018621862186218621862104210421863D6
:104D5C0018631042104218631863186318631843E1
:104D6C001843184218431843184218421842184363
:104D7C00184318631843104210421042104210425C
:104D8C001042104218421842184218631862184216
:104D9C0018421842184318431842184218631863F3
:104DAC0018631843184318421843186318631842C1
:104DBC0018421863184318431843184318421842F2
:104DCC0018431863186318631842184218421842A3
:104DDC0010221842186218631863184218421842BD
:104DEC001863186318631862184218421842184264
:104DFC001842186218621862186218421842184257
:104E0C0018621842184218421842184218421842A6
:104E1C0018421842184218421842184218421842B6
:104E2C0018421022184218421842184218421842CE
:104E3C0018421842184218421842184210221842BE
:104E4C001842184218421842184218621862184246
:104E5C0018421022102218421842184218421842C6
:104E6C001842184218421842184218421842184266
:104E7C00184210221842184218421842184218427E
:104E8C001842184218421842184218421862186206
:104E9C001862186318621842184218621862186374
:104EAC001863184318431843184318431842184200
:104EBC0018421843184318431843184218621863D1
:104ECC001863186318631863186318431842184260
:104EDC001842184318421842184318631863186391
:104EEC0018431842184210221022104218621862FD
:104EFC0018621862186218621862186318631863D3
:104F0C001862184218621862184218421863186323
:104F1C0018621863186318631863186218621862B1
:104F2C0018421862186318631863186318631863BF
:104F3C00186318631863186318631863186318638D
:104F4C00184318431843184318431863186318433D
:104F5C001842184218421842184218421042104285
:104F6C00104218421042104218421842186218425D
:104F7C001842184218431843184318431842184350
:104F8C001843186318431842184218421842184222
:104F9C001843184318421842184218421842184332
:104FAC0018631842184318431843184318431842FF
:104FBC0010421842184318631843184318631863B7
:104FCC001863186318621842186218631863184241
:104FDC0018421842184218421842184218421842F5
:104FEC0018621842184218421842184218421842C5
:104FFC0018421842184218421842184218421842D5
:10500C0018421842184218421842184218421842C4
:10501C001842184218421842102210221842184204
:10502C001842184218421842184218621862184264
:10503C001842184218421842184218421842184294
:10504C001842184218421842184218421862186244
:10505C001842184218421842184218421842184274
:10506C001842184218421842184218421862186224
:10507C0018621862186218621862184218421842B4
:10508C00184218431843184318431843184218423F
:10509C0018421843184318431843184218621863EF
:1050AC00186318631863186318631863186318631C
:1050BC00186318631843184318631863186318634C
:1050CC0018631842184218421842104210421842F3
:1050DC001842104210421862186218621862186264
:1050EC001862186218621862184218421863186322
:1050FC0018621863186318631863186218621862D0
:10510C0018421863186318631863186318631863DC
:10511C0018631042186318631863186318631843F4
:10512C00184318431863186318631863184318431B
:10513C001842184318431843184218421842104298
:10514C00104218421842184218621842186218424B
:10515C00184218431843184218431843184318436D
:10516C00184218431842184218421843184318435F
:10517C001863184318421842184218421042104241
:10518C00184318421843184318431843184318423D
:10519C0018421842184318631843186318631863AD
:1051AC00186318631863186218621863186318423E
:1051BC001842184218421842184218421842184213
:1051CC001842184218421842184218421842184203
:1051DC0018421842184218421842184218421842F3
:1051EC0018421842184218421842184218421842E3
:1051FC001842184218421842102210221842184223
:10520C001842184218421842184218621862184282
:10521C001842186218421842184218421842184292
:10522C001863184218621862184218421842184241
:10523C001842184218421842184218421842184292
:10524C001842184218421842184218421862184262
:10525C0018421862186218621862186218421842D2
:10526C00184218621862184318431843184318421E
:10527C00184218431843184318431843186318630B
:10528C0018631843184318421843186318631863BB
:10529C00186318631863186318631863186318632A
:1052AC00186318631863186318631862104210426D
:1052BC00104210421042186218621863186310638F
:1052CC001063186318631863184318431863186342
:1052DC0018621863186318631863186318621862ED
:1052EC0010421863186318631863188318631863E3
:1052FC0018631863186318631863186318631863CA
:10530C001863184318631863186318631843184319
:10531C0018431843184318431843184318431843A9
:10532C0018631842186218621862186218621863BF
:10533C00186318631843184218421863186318430B
:10534C00184218421842184218431863186318631D
:10535C001863184318421843184318421042184255
:10536C0018431042104218631863186318631843EB
:10537C0018431042184218431863186318631863D3
:10538C00186318631862186218631863186318633B
:10539C001862184218421842184218421842184211
:1053AC001842186218621842186218621862184281
:1053BC001842184218421842184218421842184211
:1053CC0018421842184218421862184218421842E1
:1053DC001022102218421842184218421842184241
:1053EC0018421842184218421842184218421842E1
:1053FC0018421862184218421842184218421842B1
:10540C00186218631863186218421842184218423E
:10541C0018421842184218421842184218421842B0
:10542C001842184218421842184218421862184280
:10543C0018421862186218621862186218621842D0
:10544C0018421862186218431863186318631843DB
:10545C0018431863186318631863184318631863A8
:10546C0018631843184318421842184318631863FA
:10547C001863184318631863186318631863184388
:10548C00184218631863188318631863186218425B
:10549C001842186218621862186218631863106355
:1054AC001063186318631863184318431863186360
:1054BC00186218621863186318631863186218620C
:1054CC001042186318631863186318631863186321
:1054DC0018631863186318631863186318631863E8
:1054EC0018631843186318631863186318631863F8
:1054FC0018431842184218431843184318431843CA
:10550C0018431862186218621862186218621863DD
:10551C001863186318431842184318631863184328
:10552C001843184318431843186318631863186317
:10553C0018631843184218421863186318631863E9
:10554C0018631042104218631863186318631863C9
:10555C0018631843184318431863186318631863C7
:10556C00186318621862186218631863186318635A
:10557C00186318621862186218621862184218428E
:10558C00184218421862186218621862186218627F
:10559C00184218421842184218421842184218422F
:1055AC00184218421842184218421842102210226F
:1055BC00102210221842184218421842184218425F
:1055CC0018421842184218421842184218421842FF
:1055DC0018421862184218421842184218421842CF
:1055EC0018621863186218421022184218421842A6
:1055FC0018421842184218421842184218421842CF
:10560C0018421842184218421842184218421842BE
:10561C0018421842184218421842184218421842AE
:10562C001842184218621843186318631863184319
:10563C0018431863186318631863186318631843C6
:10564C001843184318631863104210421863186308
:10565C001863186318631863186318631863186366
:10566C001843186318631863186318621862186279
:10567C001042186218621862186218631863186373
:10568C001863186318631863186318431863186356
:10569C001863186318631863186318631863186326
:1056AC001863186318631863186318631863186316
:1056BC001863186318631863186318431843184366
:1056CC001843186218621863186318631863186318
:1056DC0018631842184218431863184318431843A8
:1056EC0018421862186218621862186318631863FB
:1056FC0018631843184318431843184318431843A6
:10570C001843184318431863186318631863186315
:10571C0018631863184318431863186318631863E5
:10572C001863186318631863186318631863186395
:10573C0018631863186318431843186318631863C5
:10574C001863186218621862186318631863186279
:10575C0018621862186218621863186218421842AC
:10576C00186218421842186218631863186318629A
:10577C00186218421842184218421842184218620D
:10578C00186218621862184218421842102210222D
:10579C00102210221842184218421842184218427D
:1057AC0018421842184218421842184218621862DD
:1057BC00186218631862184218421842184218628C
:1057CC00186318631862184218421842184218627B
:1057DC0018421842184218421842184218421842ED
:1057EC0018421842184218421842184218421842DD
:1057FC00184218621862186218421842184218436C
:10580C001842184218421843184318631863184377
:10581C0018431863186318631863186318631843E4
:10582C001843186318631863186310421042184326
:10583C001863184318431843184318431863186324
:10584C0018631863186318431843186218621862B7
:10585C001862186218621862186318631863186368
:10586C001863186318631863186318631863184374
:10587C001843184318631863186318631863186384
:10588C001863186318631863186318631863186334
:10589C0018631863186318631042184218431843AE
:1058AC001863186218621862186218631863186318
:1058BC0018631842184318631863184318431843A5
:1058CC001842186318621862186218621863186319
:1058DC001863184318631863186318431843184364
:1058EC001863184218431843184218431863186376
:1058FC0018631863186318631863186318631863C4
:10590C0018631863186318631863186318631863B3
:10591C0018631863186318631863186318431843E3
:10592C0018631862186218631862186218421842D9
:10593C0018421862186218631863186318621862A8
:10594C0018621842184218621863186318631862B8
:10595C0018621862186218421842184218621862CB
:10596C001862186218621842184210221022102273
:10597C00102210221842184218421842184218429B
:10598C0018421862184218421842184218621862DB
:10599C001862186318421842184218621862186389
:1059AC001863186318631862184218421862186258
:1059BC0018421842184218421862186218421842CB
:1059CC0018421842186218421842184218421842DB
:1059DC001842184218631863186218621863186327
:1059EC0018421042104218421842184318431843E8
:1059FC001843184318431843184318631863186363
:105A0C001843186318631863186310421042186324
:105A1C00186318421042104210421842186318635F
:105A2C001863186318631863186318631863186392
:105A3C001863186318631863186318631863186382
:105A4C0018631062106218631863186318431842C5
:105A5C0018421843186318631863186318631863A3
:105A6C001863186318631863186318631863186352
:105A7C001863186318631863186318431843186382
:105A8C001863186218621862186218631863186336
:105A9C001863186318631863186318431843184382
:105AAC001843186318621862186218421842186377
:105ABC001863186318631843186318631863184342
:105ACC001843184218431863184218421863186395
